:03000000020006F5
:20005F0075083F750906750A5B750B4F750C66750D6D750E7D750F0775107F75116F02003C
:01007F00037D
:0300030002041ADA
:20008000AE82AF837C007D00C3EC9EED64808FF063F08095F050147A877B001ABAFF011B41
:2000A000EA4B70F70CBC00E00D80DD2285262285272375280A752900852282852383120623
:2000C0005C75280A75290012062685821285831375286475290085228285238312065C7531
:2000E000280A7529001206268582148583157528E875290385228285238312065C75280A25
:2001000075290012062685821685831775281075292785228285238312065C75280A752948
:2001200000120626858218858319AC22E523FD3395E0FEFF7528A0752986752A01752B0028
:200140008C828D838EF0EFC007C006C005C0041205D4A882A983AAF0FB75280AE4F529F58A
:200160002AF52B888289838AF0EB120585A882A983D004D005D006D007881A891B7528404F
:20018000752942752A0F752B008C828D838EF0EFC007C006C005C0041205D4A882A983AAA5
:2001A000F0FB75280AE4F529F52AF52B888289838AF0EB120585A882A983D004D005D00680
:2001C000D007881C891D752880752996752A98752B008C828D838EF0EFC007C006C005C039
:2001E000041205D4A882A983AAF0FB75280AE4F529F52AF52B888289838AF0EB120585A87E
:2002000082A983D004D005D006D007881E891F7528007529E1752AF5752B058C828D838E8B
:20022000F0EF1205D4AC82AD83AEF0FF75280AE4F529F52AF52B8C828D838EF0EF120585EA
:20024000AC82AD838C208D2122E4F520F521E4F51EF51FE4F51CF51DE4F51AF51BE4F518AF
:20026000F519E4F516F517E4F514F515E4F512F513C280D281D282D283D284D285D286D276
:2002800087E5122408F987B0900001120080D280C281D282D283D284D285D286D287E514CC
:2002A0002408F987B0900001120080D280D281C282D283D284D285D286D287E5162408F903
:2002C00087B0900001120080D280D281D282C283D284D285D286D287E5182408F987B0903F
:2002E0000001120080C280D281D282D283C284D285D286D287E51A2408F987B090000112E1
:200300000080C280D281D282D283D284C285D286D287E51C2408F987B0900001120080C28F
:2003200080D281D282D283D284D285C286D287E51E2408F987B0900001120080C280D281DC
:20034000D282D283D284D285D286C287E5202408F987B09000011200800512E4B512020559
:2003600013C3E512940AE5136480948050030202710514E4B514020515C3E514940AE51524
:2003800064809480500302026C0516E4B516020517C3E516940AE517648094805003020213
:2003A000670518E4B518020519C3E5189406E519648094805003020262051AE4B51A020506
:2003C0001BC3E51A940AE51B64809480500302025D051CE4B51C02051DC3E51C9406E51D9C
:2003E000648094805003020258051EE4B51E02051FC3E51E9405E51F6480948050030202A4
:20040000530520E4B520020521C3E5209403E52164809480500302024E22E4F526F5271232
:0704200000AC12024980F854
:20042700F9E5284529452A452B60777800C308E52B20E73BE52825E0F528E52933F529E583
:200447002A33F52AE52B33F52BE5829528E5839529E5F0952AE9952B50D4C3E52B13F52B05
:20046700E52A13F52AE52913F529E52813F528E5829528FCE5839529FDE5F0952AFEE99565
:200487002B4007F98EF08D838C82C3E52B13F52BE52A13F52AE52913F529E52813F528D8B3
:0304A700CEE92279
:2004AA00FB7A20E4FCFDFEFFE5822582F582E58333F583E5F033F5F0EB33FB4017DAE9808B
:2004CA0042E5822582F582E58333F583E5F033F5F0EB33FBEC33FCED33FDEE33FEEF33FFBA
:2004EA00EC9528ED9529EE952AEF952B4013EC9528FCED9529FDEE952AFEEF952BFF438284
:05050A0001DABEEB2246
:06003500E478FFF6D8FD9F
:200013007900E94400601B7A00900698780175A000E493F2A308B8000205A0D9F4DAF275F5
:02003300A0FF2C
:20050F00E528452960467A01E52825E0F528E529334012F529E5829528E583952940030AB9
:20052F0080E6C3E52913F529E52813F528C3E5829528F5F0E58395294005F58385F082C39E
:0D054F00E52913F529E52813F528DAE12246
:20003B007800E84400600A790175A000E4F309D8FC7800E84400600C7900900001E4F0A3C3
:04005B00D8FCD9FAFA
:20055C007A10E4FBFCE58225E0F582E58333F583EB33FBEC33FCEB9528F5F0EC9529400673
:09057C00FCABF0438201DADD2240
:20058500F9C2D530E715D2D5E4C39582F582E49583F583E495F0F5F0E499F9E52B30E7154A
:2005A500E4C39528F528E49529F529E4952AF52AE4952BF52BE912042730D512E4C3958274
:0F05C500F582E49583F583E495F0F5F0E499224F
:2005D400FBC2D530E715D2D5E4C39582F582E49583F583E495F0F5F0E49BFBE52B30E717F3
:2005F400B2D5E4C39528F528E49529F529E4952AF52AE4952BF52BEB1204AA30D513FBE4F7
:12061400C39582F582E49583F583E495F0F5F0E49B2220
:0D00060075812B120694E582600302000351
:20062600C2D5E58330E70DD2D5E4C39582F582E49583F583E52930E70BE4C39528F528E4AC
:160646009529F52912050F30D50BE4C39582F582E49583F58322C1
:20065C00C2D5E58330E70DD2D5E4C39582F582E49583F583E52930E70DB2D5E4C39528F5F9
:18067C0028E49529F52912055C30D50BE4C39582F582E49583F5832230
:040694007582002249
:00000001FF
